S01700004763634170706C69636174696F6E312E737265635B
S11300000C942A000C943F000C943F000C943F0085
S11300100C943F000C943F000C943F000C943F0060
S11300200C943F000C943F000C943F000C943F0050
S11300300C943F000C943F000C943F000C943F0040
S11300400C943F000C943F000C943F000C943F0030
S11300500C943F0011241FBECFE5D8E0DEBFCDBF16
S113006010E0A0E6B0E0EEEFF1E002C005900D92E2
S1130070A039B107D9F70E94F2000C94FD000C944A
S11300800000282F2695269526958770613039F132
S113009038F0623009F443C0633009F457C008955E
S11300A030E0220F331FF901E058FF4F0190F08137
S11300B0E02D41E050E0BA0102C0660F771F8A9537
S11300C0E2F7CB019081982B9083F901E857FF4F19
S11300D00190F081E02D9081892B8083089530E098
S11300E0220F331FF901E058FF4F0190F081E02DFA
S11300F041E050E0BA0102C0660F771F8A95E2F72B
S1130100CB019081982B9083F901E857FF4F019020
S1130110F081E02D80959081892380830895E22FDA
S1130120F0E0EE0FFF1FE058FF4F0190F081E02D4B
S113013021E030E0A90102C0440F551F8A95E2F77F
S1130140CA018095908189238083089530E0220F2D
S1130150331FF901E058FF4F0190F081E02D41E099
S113016050E0BA0102C0660F771F8A95E2F7CB010F
S11301708095908198239083F901E857FF4F01906F
S1130180F081E02D90818923808308950F931F933C
S1130190CF9300E610E0C0E0F80161918F018C2F4D
S11301A00E944100CF5FC032B9F7CF911F910F91E8
S11301B00895E82FE695E695E695F0E0EE0FFF1F2B
S11301C0E857FF4F0190F081E02D282F277081E040
S11301D090E002C0880F991F2A95E2F79081892B3D
S11301E0808308950E94C60060E081E00E9441007F
S11101F061E081E00E94D900FBCFF894FFCFBC
S11301FE03030303030303030303030101010101C7
S113020E01010102020202020202020000000000C9
S113021E3A003700340031003B003800350032001C
S9030000FC
