:100000000C942A000C9447000C9447000C94470071
:100010000C9447000C9447000C9447000C94470044
:100020000C9447000C9447000C9447000C94470034
:100030000C9447000C9447000C9447000C94470024
:100040000C9447000C9447000C9447000C94470014
:100050000C94470011241FBECFE5D8E0DEBFCDBF12
:1000600010E0A0E6B0E0EEEDF4E002C005900D92E5
:10007000A039B107D9F720E0A0E9B0E001C01D9296
:10008000A039B207E1F70E9434020C946D020C947F
:10009000000063E08FE10E94680163E08EE10E944E
:1000A000680163E08DE10E94680163E08BE10E94DA
:1000B000680160E085E10E94680160E084E10E94DF
:1000C000680160E083E10E94680160E082E10E94D3
:1000D00068010895CF93C82F682F617088E00E944F
:1000E0000002C1FB662760F989E00E940002C2FBA2
:1000F000662760F98AE00E940002C3FB662760F968
:100100008CE00E940002CF910895CF93C82F61E048
:1001100083E00E9400028C2F82958F700E946A00FB
:1001200061E082E00E9400028AE08A95F1F760E0D7
:1001300082E00E9400028C2F0E946A0061E082E04F
:100140000E9400028AE08A95F1F760E082E00E9456
:100150000002CF910895CF93C82F60E083E00E9402
:1001600000028C2F82958F700E946A0061E082E00D
:100170000E9400028AE08A95F1F760E082E00E9426
:1001800000028C2F0E946A0061E082E00E9400025F
:100190008AE08A95F1F760E082E00E940002CF9148
:1001A00008958DE292E20197F1F700C0000082E02D
:1001B0000E946A0061E082E00E94000289EF90E004
:1001C0000197F1F700C0000060E082E00E940002A9
:1001D00088E20E94AB009FE09A95F1F78FE00E94C1
:1001E000AB008FE08A95F1F781E00E94AB0083EFCE
:1001F00091E00197F1F700C0000086E00E94AB009B
:1002000008958F929F92AF92BF92EF92FF920F93B9
:100210001F93CF93DF93CDB7DEB764970FB6F894F3
:10022000DEBF0FBECDBF6115710581059105D9F106
:10023000F12C0F2EFAE08F2E912CA12CB12CF02D49
:1002400001C0F02E01E010E00C0F1D1F0F0D111D5D
:10025000A50194010E944B02605DF8016083622F4A
:10026000732F842F952F01E00F0D61157105810506
:10027000910539F70023B9F010E0C801019721E09A
:1002800030E02C0F3D1F020F131FFC01EF19F10985
:100290007F01E20EF31EF80182918F010E9485001A
:1002A0000E151F05C1F764960FB6F894DEBF0FBE9A
:1002B000CDBFDF91CF911F910F91FF90EF90BF9035
:1002C000AF909F908F90089580E80E94AB000895B2
:1002D000282F2695269526958770613039F138F0BC
:1002E000623009F443C0633009F457C0089530E028
:1002F000220F331FF901E058FF4F0190F081E02DEC
:1003000041E050E0BA0102C0660F771F8A95E2F71C
:10031000CB019081982B9083F901E857FF4F019012
:10032000F081E02D9081892B8083089530E0220FA9
:10033000331FF901E058FF4F0190F081E02D41E0BB
:1003400050E0BA0102C0660F771F8A95E2F7CB0131
:100350009081982B9083F901E857FF4F0190F0812D
:10036000E02D80959081892380830895E22FF0E02D
:10037000EE0FFF1FE058FF4F0190F081E02D21E0CC
:1003800030E0A90102C0440F551F8A95E2F7CA0167
:100390008095908189238083089530E0220F331F58
:1003A000F901E058FF4F0190F081E02D41E050E06D
:1003B000BA0102C0660F771F8A95E2F7CB018095DC
:1003C000908198239083F901E857FF4F0190F081C5
:1003D000E02D90818923808308950F931F93CF93FD
:1003E00000E610E0C0E0F80161918F018C2F0E94BF
:1003F0006801CF5FC032B9F7CF911F910F91089577
:10040000E82FE695E695E69587706130A9F4F0E06F
:10041000EE0FFF1FE857FF4F0190F081E02D21E024
:1004200030E0A90102C0440F551F8A95E2F7CA01C6
:100430009081892B80830895611115C0F0E0EE0F43
:10044000FF1FE857FF4F0190F081E02D21E030E0E1
:10045000A90102C0440F551F8A95E2F7CA01809591
:1004600090818923808308950E94ED010E94D1002C
:100470000E94490081E40E94850080E20E9485007C
:100480006AEE70E080E090E00E94010163E082E0AB
:100490000E946401FFCFA1E21A2EAA1BBB1BFD0123
:1004A0000DC0AA1FBB1FEE1FFF1FA217B307E40753
:1004B000F50720F0A21BB30BE40BF50B661F771FAB
:1004C000881F991F1A9469F760957095809590958B
:0E04D0009B01AC01BD01CF010895F894FFCF50
:1004DE0001010101010303030101010101010101F8
:1004EE0000000000000000000303030303030303E6
:1004FE003A003700340031003B003800350032003E
:00000001FF
