S01700004763634170706C69636174696F6E312E737265635B
S11300000C942A000C9447000C9447000C9447006D
S11300100C9447000C9447000C9447000C94470040
S11300200C9447000C9447000C9447000C94470030
S11300300C9447000C9447000C9447000C94470020
S11300400C948E010C9447000C9447000C944700C8
S11300500C94470011241FBECFE5D8E0DEBFCDBF0E
S113006010E0A0E6B0E0ECECF3E002C005900D92E5
S1130070A836B107D9F720E0A8E6B0E001C01D9288
S1130080A936B207E1F70E9481010C94E4010C94B3
S11300900000CF93C82F682F617088E00E944D0143
S11300A0C1FB662760F989E00E944D01C2FB662707
S11300B060F98AE00E944D01C3FB662760F98CE079
S11300C00E944D01CF910895CF93C82F61E083E042
S11300D00E944D018C2F82958F700E94490061E02F
S11300E082E00E944D018AE08A95F1F760E082E0A7
S11300F00E944D018C2F0E94490061E082E00E9421
S11301004D018AE08A95F1F760E082E00E944D019A
S1130110CF910895CF93C82F60E083E00E944D01F2
S11301208C2F82958F700E94490061E082E00E94CA
S11301304D018AE08A95F1F760E082E00E944D016A
S11301408C2F0E94490061E082E00E944D018AE008
S11301508A95F1F760E082E00E944D01CF91089505
S11301608DE292E20197F1F700C0000082E00E9464
S1130170490061E082E00E944D0189EF90E001971F
S1130180F1F700C0000060E082E00E944D0188E2C7
S11301900E948A009FE09A95F1F78FE00E948A00FE
S11301A08FE08A95F1F781E00E948A0083EF91E065
S11301B00197F1F700C0000086E00E948A000895CC
S11301C08F929F92AF92BF92EF92FF920F931F93E1
S11301D0CF93DF93CDB7DEB764970FB6F894DEBF45
S11301E00FBECDBF6115710581059105D9F1F12CC3
S11301F00F2EFAE08F2E912CA12CB12CF02D01C0E2
S1130200F02E01E010E00C0F1D1F0F0D111DA501B4
S113021094010E94C201605DF8016083622F732F14
S1130220842F952F01E00F0D61157105810591054E
S113023039F70023B9F010E0C801019721E030E05C
S11302402C0F3D1F020F131FFC01EF19F1097F0151
S1130250E20EF31EF80182918F010E9464000E15D4
S11302601F05C1F764960FB6F894DEBF0FBECDBF6D
S1130270DF91CF911F910F91FF90EF90BF90AF90BE
S11302809F908F9008958FE886B90895806487B908
S1130290369A349A84B195B10895E82FE695E69597
S11302A0E69587706130A9F4F0E0EE0FFF1FE05A85
S11302B0FF4F0190F081E02D21E030E0A90102C060
S11302C0440F551F8A95E2F7CA019081892B8083D8
S11302D00895611115C0F0E0EE0FFF1FE05AFF4FC3
S11302E00190F081E02D21E030E0A90102C0440F2B
S11302F0551F8A95E2F7CA018095908189238083EE
S113030008950E94B0000E94430180E00E944601CB
S1130310BC0180E090E00E94E000F7CF1F920F92B2
S11303200FB60F9211242F933F934F935F936F93C4
S11303307F938F939F93AF93BF93EF93FF9380919A
S11303406800813039F461E084E00E944D0110922C
S1130350680007C060E084E00E944D0181E0809362
S11303606800FF91EF91BF91AF919F918F917F9121
S11303706F915F914F913F912F910F900FBE0F900E
S11303801F901895A1E21A2EAA1BBB1BFD010DC0DC
S1130390AA1FBB1FEE1FFF1FA217B307E407F50731
S11303A020F0A21BB30BE40BF50B661F771F881F0D
S11303B0991F1A9469F760957095809590959B01A3
S10F03C0AC01BD01CF010895F894FFCFFB
S10B03CC3B003800350032004B
S9030000FC
