S01700004763634170706C69636174696F6E312E737265635B
S11300000C942A000C943F000C943F000C943F0085
S11300100C943F000C943F000C943F000C943F0060
S11300200C943F000C943F000C943F000C943F0050
S11300300C943F000C943F000C943F000C943F0040
S11300400C943F000C943F000C943F000C943F0030
S11300500C943F0011241FBECFE5D8E0DEBFCDBF16
S113006010E0A0E6B0E0E2E6F3E002C005900D92F5
S1130070A039B107D9F70E94A4010C94AF010C94E4
S11300800000CF93C82F682F617088E00E94700130
S1130090C1FB662760F989E00E947001C2FB6627F4
S11300A060F98AE00E947001C3FB662760F98CE066
S11300B00E947001CF910895CF93C82F61E083E02F
S11300C00E9470018C2F82958F700E94410061E024
S11300D082E00E9470018AE08A95F1F760E082E094
S11300E00E9470018C2F0E94410061E082E00E9416
S11300F070018AE08A95F1F760E082E00E94700165
S1130100CF910895CF93C82F60E083E00E947001DF
S11301108C2F82958F700E94410061E082E00E94E2
S113012070018AE08A95F1F760E082E00E94700134
S11301308C2F0E94410061E082E00E9470018AE0FD
S11301408A95F1F760E082E00E947001CF910895F2
S11301508DE292E20197F1F700C0000082E00E9474
S1130160410061E082E00E94700189EF90E0019714
S1130170F1F700C0000060E082E00E94700188E2B4
S11301800E9482009FE09A95F1F78FE00E9482001E
S11301908FE08A95F1F781E00E94820083EF91E07D
S11301A00197F1F700C0000086E00E9482000895E4
S11301B0282F2695269526958770613039F138F0D9
S11301C0623009F443C0633009F457C0089530E045
S11301D0220F331FF901E058FF4F0190F081E02D09
S11301E041E050E0BA0102C0660F771F8A95E2F73A
S11301F0CB019081982B9083F901E857FF4F019030
S1130200F081E02D9081892B8083089530E0220FC6
S1130210331FF901E058FF4F0190F081E02D41E0D8
S113022050E0BA0102C0660F771F8A95E2F7CB014E
S11302309081982B9083F901E857FF4F0190F0814A
S1130240E02D80959081892380830895E22FF0E04A
S1130250EE0FFF1FE058FF4F0190F081E02D21E0E9
S113026030E0A90102C0440F551F8A95E2F7CA0184
S11302708095908189238083089530E0220F331F75
S1130280F901E058FF4F0190F081E02D41E050E08A
S1130290BA0102C0660F771F8A95E2F7CB018095F9
S11302A0908198239083F901E857FF4F0190F081E2
S11302B0E02D90818923808308950F931F93CF931A
S11302C000E610E0C0E0F80161918F018C2F0E94DC
S11302D0D800CF5FC032B9F7CF911F910F91089525
S11302E0E82FE695E695E69587706130A9F4F0E08D
S11302F0EE0FFF1FE857FF4F0190F081E02D21E042
S113030030E0A90102C0440F551F8A95E2F7CA01E3
S11303109081892B80830895611115C0F0E0EE0F60
S1130320FF1FE857FF4F0190F081E02D21E030E0FE
S1130330A90102C0440F551F8A95E2F7CA018095AE
S113034090818923808308950E945D010E94A80002
S113035081E40E945C0082E40E945C00FFCFF89478
S1050360FFCFC9
S11303620101010101030303010101010101010171
S11303720101020202020202020202020202020259
S11303823A003700340031003B00380035003200B7
S9030000FC
